{
  "transactions": [
    {
      "hash": "0xc05780bb89313e0e83c9aaeb5dd603085589705ad2f4ff66930edb640e3ad7ea",
      "transactionType": "CALL",
      "contractName": null,
      "contractAddress": "0xd2191fe92987171691d552c219b8caef186eb9ca",
      "function": "create((uint64,address,bytes,uint64,bytes,bool,uint64,bytes))",
      "arguments": [
        "(1, 0x64D4C6795FDFE795f509dF45C1a0943c2816A94a, 0x00000000000000000000000055d398326f99059ff775485246999027b3197955000000000000000000000000000000000000000000000000000000000000dead000000000000000000000000000000000000000000000000000000000001518000000000000000000000000000000000000000000000000000000000000000000000000000000000000000000000000000000000000000000000000000000000000000000000000000000000000000000000000000000000000000000000000000000000000000000000000064d4c6795fdfe795f509df45c1a0943c2816a94a00000000000000000000000064d4c6795fdfe795f509df45c1a0943c2816a94a00000000000000000000000064d4c6795fdfe795f509df45c1a0943c2816a94a00000000000000000000000064d4c6795fdfe795f509df45c1a0943c2816a94a00000000000000000000000064d4c6795fdfe795f509df45c1a0943c2816a94a, 0, 0x000000000000000000000000000000000000000000000000000000000000002000000000000000000000000064d4c6795fdfe795f509df45c1a0943c2816a94a000000000000000000000000000000000000000000000000000000000000000000000000000000000000000064d4c6795fdfe795f509df45c1a0943c2816a94a00000000000000000000000000000000000000000000000000000000000000a000000000000000000000000000000000000000000000000000000000000000e0000000000000000000000000000000000000000000000000000000000000000100000000000000000000000064d4c6795fdfe795f509df45c1a0943c2816a94a000000000000000000000000000000000000000000000000000000000000000100000000000000000000000064d4c6795fdfe795f509df45c1a0943c2816a94a, false, 0, 0x)"
      ],
      "transaction": {
        "from": "0x64d4c6795fdfe795f509df45c1a0943c2816a94a",
        "to": "0xd2191fe92987171691d552c219b8caef186eb9ca",
        "gas": "0x149fd1",
        "value": "0x0",
        "input": "0xc48927e40000000000000000000000000000000000000000000000000000000000000020000000000000000000000000000000000000000000000000000000000000000100000000000000000000000064d4c6795fdfe795f509df45c1a0943c2816a94a0000000000000000000000000000000000000000000000000000000000000100000000000000000000000000000000000000000000000000000000000000000000000000000000000000000000000000000000000000000000000000000002800000000000000000000000000000000000000000000000000000000000000000000000000000000000000000000000000000000000000000000000000000000000000000000000000000000000000000000000000000000000000000000003e0000000000000000000000000000000000000000000000000000000000000016000000000000000000000000055d398326f99059ff775485246999027b3197955000000000000000000000000000000000000000000000000000000000000dead000000000000000000000000000000000000000000000000000000000001518000000000000000000000000000000000000000000000000000000000000000000000000000000000000000000000000000000000000000000000000000000000000000000000000000000000000000000000000000000000000000000000000000000000000000000000000064d4c6795fdfe795f509df45c1a0943c2816a94a00000000000000000000000064d4c6795fdfe795f509df45c1a0943c2816a94a00000000000000000000000064d4c6795fdfe795f509df45c1a0943c2816a94a00000000000000000000000064d4c6795fdfe795f509df45c1a0943c2816a94a00000000000000000000000064d4c6795fdfe795f509df45c1a0943c2816a94a0000000000000000000000000000000000000000000000000000000000000140000000000000000000000000000000000000000000000000000000000000002000000000000000000000000064d4c6795fdfe795f509df45c1a0943c2816a94a000000000000000000000000000000000000000000000000000000000000000000000000000000000000000064d4c6795fdfe795f509df45c1a0943c2816a94a00000000000000000000000000000000000000000000000000000000000000a000000000000000000000000000000000000000000000000000000000000000e0000000000000000000000000000000000000000000000000000000000000000100000000000000000000000064d4c6795fdfe795f509df45c1a0943c2816a94a000000000000000000000000000000000000000000000000000000000000000100000000000000000000000064d4c6795fdfe795f509df45c1a0943c2816a94a0000000000000000000000000000000000000000000000000000000000000000",
        "nonce": "0x0",
        "chainId": "0xaa36a7"
      },
      "additionalContracts": [
        {
          "transactionType": "CREATE2",
          "address": "0xc0191cf2a92e20b1798bfb81a6a0f013571fdf65",
          "initCode": "0x604060a0815234610204576106098038038061001a81610209565b92833981019082818303126102045780516001600160a01b0392838216918281036102045760208481015190946001600160401b038211610204570182601f820112156102045780519061007561007083610244565b610209565b9382855286838301011161020457859060005b8381106101f057505060009184010152803b156101d8577f360894a13ba1a3210667c828492db98dca3e2076cc3735a920a3ca505d382bbc80546001600160a01b03199081168517909155927fbc7cd75a20ee27fd9adebab32041f755214dbc6bffa90cc0225b39da2e5c2d3b600080a2815191849083156101cf5761013493600092839201845af43d156101c7573d9161012561007084610244565b9283523d60008785013e61025f565b505b336080527f7e644d79422f17c01e4894b5f4f588d331ebfa28653d42ae832dc59e38c9798f847fb53127684a568b3173ae13b9f8a6016e243e63b6e8ee1178d6a717850b5d610394855494825191861682523390820152a133156101af5716331790555161034690816102c38239608051816101030152f35b8351633173bdd160e11b815260006004820152602490fd5b60609161025f565b50505050610136565b8551634c9c8ce360e01b815260048101849052602490fd5b818101830151868201840152879201610088565b600080fd5b6040519190601f01601f191682016001600160401b0381118382101761022e57604052565b634e487b7160e01b600052604160045260246000fd5b6001600160401b03811161022e57601f01601f191660200190565b90610286575080511561027457805190602001fd5b604051630a12f52160e11b8152600490fd5b815115806102b9575b610297575090565b604051639996b31560e01b81526001600160a01b039091166004820152602490fd5b50803b1561028f56fe60806040526004361061020d576000803560e01c634f1ef28614610023575061020d565b34610097576040366003190112610097576004356001600160a01b0381168103610093576024359067ffffffffffffffff9081831161008f573660238401121561008f57826004013591821161008f57366024838501011161008f57602461008c9301906100f7565b80f35b8380fd5b5080fd5b80fd5b634e487b7160e01b600052604160045260246000fd5b6040519190601f01601f1916820167ffffffffffffffff8111838210176100d657604052565b61009a565b67ffffffffffffffff81116100d657601f01601f191660200190565b916001600160a01b03907f0000000000000000000000000000000000000000000000000000000000000000821633036101fb5761013b610136826100db565b6100b0565b9281845236828201116101f657816000926020928387013784010152823b156101dc5782167f360894a13ba1a3210667c828492db98dca3e2076cc3735a920a3ca505d382bbc816bffffffffffffffffffffffff60a01b8254161790557fbc7cd75a20ee27fd9adebab32041f755214dbc6bffa90cc0225b39da2e5c2d3b600080a28051156101d0576101cd91610272565b50565b50506101da610259565b565b604051634c9c8ce360e01b81529083166004820152602490fd5b600080fd5b6040516334ad5dbb60e21b8152600490fd5b7f360894a13ba1a3210667c828492db98dca3e2076cc3735a920a3ca505d382bbc54600090819081906001600160a01b0316368280378136915af43d82803e15610255573d90f35b3d90fd5b3461026057565b60405163b398979f60e01b8152600490fd5b6000806102a693602081519101845af43d156102a9573d91610296610136846100db565b9283523d6000602085013e6102ad565b90565b6060915b906102d457508051156102c257805190602001fd5b604051630a12f52160e11b8152600490fd5b81511580610307575b6102e5575090565b604051639996b31560e01b81526001600160a01b039091166004820152602490fd5b50803b156102dd56fea2646970667358221220e5c18f58a04218f912ea9f96de2e9f1b005db1c63ed03f594dd8fa5fd75fea9a64736f6c63430008190033000000000000000000000000586ccdcdc81f52dbe224d03caf2a790b6d4379b9000000000000000000000000000000000000000000000000000000000000004000000000000000000000000000000000000000000000000000000000000001e457ec83cc000000000000000000000000000000000000000000000000000000000000000100000000000000000000000064d4c6795fdfe795f509df45c1a0943c2816a94a0000000000000000000000000000000000000000000000000000000000000060000000000000000000000000000000000000000000000000000000000000016000000000000000000000000055d398326f99059ff775485246999027b3197955000000000000000000000000000000000000000000000000000000000000dead000000000000000000000000000000000000000000000000000000000001518000000000000000000000000000000000000000000000000000000000000000000000000000000000000000000000000000000000000000000000000000000000000000000000000000000000000000000000000000000000000000000000000000000000000000000000000064d4c6795fdfe795f509df45c1a0943c2816a94a00000000000000000000000064d4c6795fdfe795f509df45c1a0943c2816a94a00000000000000000000000064d4c6795fdfe795f509df45c1a0943c2816a94a00000000000000000000000064d4c6795fdfe795f509df45c1a0943c2816a94a00000000000000000000000064d4c6795fdfe795f509df45c1a0943c2816a94a00000000000000000000000000000000000000000000000000000000"
        },
        {
          "transactionType": "CREATE2",
          "address": "0xc7e232e54155a8871b7fcca35accc2c0cac564d9",
          "initCode": "0x3d602d80600a3d3981f3363d3d373d3d3d363d7345195a5da7c896ffbe709f65076a956990aeaac55af43d82803e903d91602b57fd5bf3"
        }
      ],
      "isFixedGasLimit": false
    }
  ],
  "receipts": [
    {
      "status": "0x1",
      "cumulativeGasUsed": "0xbd7f7e",
      "logs": [
        {
          "address": "0xc0191cf2a92e20b1798bfb81a6a0f013571fdf65",
          "topics": [
            "0xbc7cd75a20ee27fd9adebab32041f755214dbc6bffa90cc0225b39da2e5c2d3b",
            "0x000000000000000000000000586ccdcdc81f52dbe224d03caf2a790b6d4379b9"
          ],
          "data": "0x",
          "blockHash": "0x7055547db4137681ffaeaad65eb78888b7e784aa283372d3107e2eb49ea7870f",
          "blockNumber": "0x8ae608",
          "blockTimestamp": "0x68b42164",
          "transactionHash": "0xc05780bb89313e0e83c9aaeb5dd603085589705ad2f4ff66930edb640e3ad7ea",
          "transactionIndex": "0xd6",
          "logIndex": "0x70",
          "removed": false
        },
        {
          "address": "0xc0191cf2a92e20b1798bfb81a6a0f013571fdf65",
          "topics": [
            "0x8be0079c531659141344cd1fd0a4f28419497f9722a3daafe3b4186f6b6457e0",
            "0x0000000000000000000000000000000000000000000000000000000000000000",
            "0x00000000000000000000000064d4c6795fdfe795f509df45c1a0943c2816a94a"
          ],
          "data": "0x",
          "blockHash": "0x7055547db4137681ffaeaad65eb78888b7e784aa283372d3107e2eb49ea7870f",
          "blockNumber": "0x8ae608",
          "blockTimestamp": "0x68b42164",
          "transactionHash": "0xc05780bb89313e0e83c9aaeb5dd603085589705ad2f4ff66930edb640e3ad7ea",
          "transactionIndex": "0xd6",
          "logIndex": "0x71",
          "removed": false
        },
        {
          "address": "0xc0191cf2a92e20b1798bfb81a6a0f013571fdf65",
          "topics": [
            "0x2f8788117e7eff1d82e926ec794901d17c78024a50270940304540a733656f0d",
            "0x0000000000000000000000000000000000000000000000000000000000000000",
            "0x00000000000000000000000064d4c6795fdfe795f509df45c1a0943c2816a94a",
            "0x000000000000000000000000407a039d94948484d356efb765b3c74382a050b4"
          ],
          "data": "0x",
          "blockHash": "0x7055547db4137681ffaeaad65eb78888b7e784aa283372d3107e2eb49ea7870f",
          "blockNumber": "0x8ae608",
          "blockTimestamp": "0x68b42164",
          "transactionHash": "0xc05780bb89313e0e83c9aaeb5dd603085589705ad2f4ff66930edb640e3ad7ea",
          "transactionIndex": "0xd6",
          "logIndex": "0x72",
          "removed": false
        },
        {
          "address": "0xc0191cf2a92e20b1798bfb81a6a0f013571fdf65",
          "topics": [
            "0x2f8788117e7eff1d82e926ec794901d17c78024a50270940304540a733656f0d",
            "0xbae4ee3de6c709ff9a002e774c5b78cb381560b219213c88ae0f1e207c03c023",
            "0x00000000000000000000000064d4c6795fdfe795f509df45c1a0943c2816a94a",
            "0x000000000000000000000000407a039d94948484d356efb765b3c74382a050b4"
          ],
          "data": "0x",
          "blockHash": "0x7055547db4137681ffaeaad65eb78888b7e784aa283372d3107e2eb49ea7870f",
          "blockNumber": "0x8ae608",
          "blockTimestamp": "0x68b42164",
          "transactionHash": "0xc05780bb89313e0e83c9aaeb5dd603085589705ad2f4ff66930edb640e3ad7ea",
          "transactionIndex": "0xd6",
          "logIndex": "0x73",
          "removed": false
        },
        {
          "address": "0xc0191cf2a92e20b1798bfb81a6a0f013571fdf65",
          "topics": [
            "0x2f8788117e7eff1d82e926ec794901d17c78024a50270940304540a733656f0d",
            "0x9c56d972d63cbb4195b3c1484691dfc220fa96a4c47e7b6613bd82a022029e06",
            "0x00000000000000000000000064d4c6795fdfe795f509df45c1a0943c2816a94a",
            "0x000000000000000000000000407a039d94948484d356efb765b3c74382a050b4"
          ],
          "data": "0x",
          "blockHash": "0x7055547db4137681ffaeaad65eb78888b7e784aa283372d3107e2eb49ea7870f",
          "blockNumber": "0x8ae608",
          "blockTimestamp": "0x68b42164",
          "transactionHash": "0xc05780bb89313e0e83c9aaeb5dd603085589705ad2f4ff66930edb640e3ad7ea",
          "transactionIndex": "0xd6",
          "logIndex": "0x74",
          "removed": false
        },
        {
          "address": "0xc0191cf2a92e20b1798bfb81a6a0f013571fdf65",
          "topics": [
            "0x2f8788117e7eff1d82e926ec794901d17c78024a50270940304540a733656f0d",
            "0xc6aaadd7371d5e8f9ed6849dd66a66573a3ba37167d03f4352c9ba5693678fac",
            "0x00000000000000000000000064d4c6795fdfe795f509df45c1a0943c2816a94a",
            "0x000000000000000000000000407a039d94948484d356efb765b3c74382a050b4"
          ],
          "data": "0x",
          "blockHash": "0x7055547db4137681ffaeaad65eb78888b7e784aa283372d3107e2eb49ea7870f",
          "blockNumber": "0x8ae608",
          "blockTimestamp": "0x68b42164",
          "transactionHash": "0xc05780bb89313e0e83c9aaeb5dd603085589705ad2f4ff66930edb640e3ad7ea",
          "transactionIndex": "0xd6",
          "logIndex": "0x75",
          "removed": false
        },
        {
          "address": "0xc0191cf2a92e20b1798bfb81a6a0f013571fdf65",
          "topics": [
            "0x2f8788117e7eff1d82e926ec794901d17c78024a50270940304540a733656f0d",
            "0x4a634bc14d77baf979756509ef4298c6f6318af357828612545267ee2eb79233",
            "0x00000000000000000000000064d4c6795fdfe795f509df45c1a0943c2816a94a",
            "0x000000000000000000000000407a039d94948484d356efb765b3c74382a050b4"
          ],
          "data": "0x",
          "blockHash": "0x7055547db4137681ffaeaad65eb78888b7e784aa283372d3107e2eb49ea7870f",
          "blockNumber": "0x8ae608",
          "blockTimestamp": "0x68b42164",
          "transactionHash": "0xc05780bb89313e0e83c9aaeb5dd603085589705ad2f4ff66930edb640e3ad7ea",
          "transactionIndex": "0xd6",
          "logIndex": "0x76",
          "removed": false
        },
        {
          "address": "0xc0191cf2a92e20b1798bfb81a6a0f013571fdf65",
          "topics": [
            "0xc7f505b2f371ae2175ee4913f4499e1f2633a7b5936321eed1cdaeb6115181d2"
          ],
          "data": "0x0000000000000000000000000000000000000000000000000000000000000001",
          "blockHash": "0x7055547db4137681ffaeaad65eb78888b7e784aa283372d3107e2eb49ea7870f",
          "blockNumber": "0x8ae608",
          "blockTimestamp": "0x68b42164",
          "transactionHash": "0xc05780bb89313e0e83c9aaeb5dd603085589705ad2f4ff66930edb640e3ad7ea",
          "transactionIndex": "0xd6",
          "logIndex": "0x77",
          "removed": false
        },
        {
          "address": "0xc0191cf2a92e20b1798bfb81a6a0f013571fdf65",
          "topics": [
            "0x7e644d79422f17c01e4894b5f4f588d331ebfa28653d42ae832dc59e38c9798f"
          ],
          "data": "0x0000000000000000000000000000000000000000000000000000000000000000000000000000000000000000407a039d94948484d356efb765b3c74382a050b4",
          "blockHash": "0x7055547db4137681ffaeaad65eb78888b7e784aa283372d3107e2eb49ea7870f",
          "blockNumber": "0x8ae608",
          "blockTimestamp": "0x68b42164",
          "transactionHash": "0xc05780bb89313e0e83c9aaeb5dd603085589705ad2f4ff66930edb640e3ad7ea",
          "transactionIndex": "0xd6",
          "logIndex": "0x78",
          "removed": false
        },
        {
          "address": "0x407a039d94948484d356efb765b3c74382a050b4",
          "topics": [
            "0xb919910dcefbf753bfd926ab3b1d3f85d877190c3d01ba1bd585047b99b99f0b",
            "0x000000000000000000000000c0191cf2a92e20b1798bfb81a6a0f013571fdf65"
          ],
          "data": "0x",
          "blockHash": "0x7055547db4137681ffaeaad65eb78888b7e784aa283372d3107e2eb49ea7870f",
          "blockNumber": "0x8ae608",
          "blockTimestamp": "0x68b42164",
          "transactionHash": "0xc05780bb89313e0e83c9aaeb5dd603085589705ad2f4ff66930edb640e3ad7ea",
          "transactionIndex": "0xd6",
          "logIndex": "0x79",
          "removed": false
        },
        {
          "address": "0x890ca3f95e0f40a79885b7400926544b2214b03f",
          "topics": [
            "0xb919910dcefbf753bfd926ab3b1d3f85d877190c3d01ba1bd585047b99b99f0b",
            "0x000000000000000000000000c7e232e54155a8871b7fcca35accc2c0cac564d9"
          ],
          "data": "0x",
          "blockHash": "0x7055547db4137681ffaeaad65eb78888b7e784aa283372d3107e2eb49ea7870f",
          "blockNumber": "0x8ae608",
          "blockTimestamp": "0x68b42164",
          "transactionHash": "0xc05780bb89313e0e83c9aaeb5dd603085589705ad2f4ff66930edb640e3ad7ea",
          "transactionIndex": "0xd6",
          "logIndex": "0x7a",
          "removed": false
        },
        {
          "address": "0xc7e232e54155a8871b7fcca35accc2c0cac564d9",
          "topics": [
            "0x2f8788117e7eff1d82e926ec794901d17c78024a50270940304540a733656f0d",
            "0x008b9b1e5fa9cf3b14f87f435649268146305ddf689f082e5961a335b07a9abf",
            "0x00000000000000000000000064d4c6795fdfe795f509df45c1a0943c2816a94a",
            "0x000000000000000000000000890ca3f95e0f40a79885b7400926544b2214b03f"
          ],
          "data": "0x",
          "blockHash": "0x7055547db4137681ffaeaad65eb78888b7e784aa283372d3107e2eb49ea7870f",
          "blockNumber": "0x8ae608",
          "blockTimestamp": "0x68b42164",
          "transactionHash": "0xc05780bb89313e0e83c9aaeb5dd603085589705ad2f4ff66930edb640e3ad7ea",
          "transactionIndex": "0xd6",
          "logIndex": "0x7b",
          "removed": false
        },
        {
          "address": "0xc7e232e54155a8871b7fcca35accc2c0cac564d9",
          "topics": [
            "0x2f8788117e7eff1d82e926ec794901d17c78024a50270940304540a733656f0d",
            "0x1312a1cf530e56add9be4fd84db9051dcc7635952f09f735f9a29405b5584625",
            "0x00000000000000000000000064d4c6795fdfe795f509df45c1a0943c2816a94a",
            "0x000000000000000000000000890ca3f95e0f40a79885b7400926544b2214b03f"
          ],
          "data": "0x",
          "blockHash": "0x7055547db4137681ffaeaad65eb78888b7e784aa283372d3107e2eb49ea7870f",
          "blockNumber": "0x8ae608",
          "blockTimestamp": "0x68b42164",
          "transactionHash": "0xc05780bb89313e0e83c9aaeb5dd603085589705ad2f4ff66930edb640e3ad7ea",
          "transactionIndex": "0xd6",
          "logIndex": "0x7c",
          "removed": false
        },
        {
          "address": "0xc7e232e54155a8871b7fcca35accc2c0cac564d9",
          "topics": [
            "0x2f8788117e7eff1d82e926ec794901d17c78024a50270940304540a733656f0d",
            "0x0000000000000000000000000000000000000000000000000000000000000000",
            "0x00000000000000000000000064d4c6795fdfe795f509df45c1a0943c2816a94a",
            "0x000000000000000000000000890ca3f95e0f40a79885b7400926544b2214b03f"
          ],
          "data": "0x",
          "blockHash": "0x7055547db4137681ffaeaad65eb78888b7e784aa283372d3107e2eb49ea7870f",
          "blockNumber": "0x8ae608",
          "blockTimestamp": "0x68b42164",
          "transactionHash": "0xc05780bb89313e0e83c9aaeb5dd603085589705ad2f4ff66930edb640e3ad7ea",
          "transactionIndex": "0xd6",
          "logIndex": "0x7d",
          "removed": false
        },
        {
          "address": "0xc7e232e54155a8871b7fcca35accc2c0cac564d9",
          "topics": [
            "0x2f8788117e7eff1d82e926ec794901d17c78024a50270940304540a733656f0d",
            "0xd1c1f6fa6bf27d54c5e54c7c1dc6e5004d3c027ea1994fe68b29c1b51b69c36c",
            "0x00000000000000000000000064d4c6795fdfe795f509df45c1a0943c2816a94a",
            "0x000000000000000000000000890ca3f95e0f40a79885b7400926544b2214b03f"
          ],
          "data": "0x",
          "blockHash": "0x7055547db4137681ffaeaad65eb78888b7e784aa283372d3107e2eb49ea7870f",
          "blockNumber": "0x8ae608",
          "blockTimestamp": "0x68b42164",
          "transactionHash": "0xc05780bb89313e0e83c9aaeb5dd603085589705ad2f4ff66930edb640e3ad7ea",
          "transactionIndex": "0xd6",
          "logIndex": "0x7e",
          "removed": false
        },
        {
          "address": "0xc7e232e54155a8871b7fcca35accc2c0cac564d9",
          "topics": [
            "0xc7f505b2f371ae2175ee4913f4499e1f2633a7b5936321eed1cdaeb6115181d2"
          ],
          "data": "0x0000000000000000000000000000000000000000000000000000000000000001",
          "blockHash": "0x7055547db4137681ffaeaad65eb78888b7e784aa283372d3107e2eb49ea7870f",
          "blockNumber": "0x8ae608",
          "blockTimestamp": "0x68b42164",
          "transactionHash": "0xc05780bb89313e0e83c9aaeb5dd603085589705ad2f4ff66930edb640e3ad7ea",
          "transactionIndex": "0xd6",
          "logIndex": "0x7f",
          "removed": false
        },
        {
          "address": "0xc0191cf2a92e20b1798bfb81a6a0f013571fdf65",
          "topics": [
            "0xdb2160616f776a37b24808115554e79439bf26cccbbd4438190cc6d28e80ecd1",
            "0x000000000000000000000000c7e232e54155a8871b7fcca35accc2c0cac564d9"
          ],
          "data": "0x",
          "blockHash": "0x7055547db4137681ffaeaad65eb78888b7e784aa283372d3107e2eb49ea7870f",
          "blockNumber": "0x8ae608",
          "blockTimestamp": "0x68b42164",
          "transactionHash": "0xc05780bb89313e0e83c9aaeb5dd603085589705ad2f4ff66930edb640e3ad7ea",
          "transactionIndex": "0xd6",
          "logIndex": "0x80",
          "removed": false
        },
        {
          "address": "0xc0191cf2a92e20b1798bfb81a6a0f013571fdf65",
          "topics": [
            "0xe7e4c932e03abddfe20f83af42c33627e816115c7ec2b168441f65dc14bfc3ba",
            "0x0000000000000000000000000000000000000000000000000000000000000000"
          ],
          "data": "0x",
          "blockHash": "0x7055547db4137681ffaeaad65eb78888b7e784aa283372d3107e2eb49ea7870f",
          "blockNumber": "0x8ae608",
          "blockTimestamp": "0x68b42164",
          "transactionHash": "0xc05780bb89313e0e83c9aaeb5dd603085589705ad2f4ff66930edb640e3ad7ea",
          "transactionIndex": "0xd6",
          "logIndex": "0x81",
          "removed": false
        }
      ],
      "logsBloom": "0x0000000440000008000000000000000060000001000000000080000010000000000008000000001000000080000202004000000008000000000000000000000000000000824002080000a0000010020010010000000000080000000010020000000004000200000040000000000008000000008000000002000000000010024000400000000000000008000000020000020008000a0080000000000012800000020000000000000040000000000000000000000000020020001022000080000000000020000000000000000000800000000400020404000100000000000020000020040000002800000090200484000000000000200000000000400008000000",
      "type": "0x2",
      "transactionHash": "0xc05780bb89313e0e83c9aaeb5dd603085589705ad2f4ff66930edb640e3ad7ea",
      "transactionIndex": "0xd6",
      "blockHash": "0x7055547db4137681ffaeaad65eb78888b7e784aa283372d3107e2eb49ea7870f",
      "blockNumber": "0x8ae608",
      "gasUsed": "0xe1a22",
      "effectiveGasPrice": "0x110000a6",
      "from": "0x64d4c6795fdfe795f509df45c1a0943c2816a94a",
      "to": "0xd2191fe92987171691d552c219b8caef186eb9ca",
      "contractAddress": null
    }
  ],
  "libraries": [],
  "pending": [],
  "returns": {},
  "timestamp": 1756635495,
  "chain": 11155111,
  "commit": "9989b48"
}