{
  "transactions": [
    {
      "hash": "0x2f6c02380a610b90d129b5c9a38a453310fc0e61880c3f51f4864fe6aad8fec8",
      "transactionType": "CALL",
      "contractName": null,
      "contractAddress": "0xdeb1c9bd142d95675704f8882a31bb02e1de979a",
      "function": "createProxy(address,bool,bytes)",
      "arguments": [
        "0x0000000000000000000000000000000000000000",
        "false",
        "0x0b2c639c533813f4aa9d7837caf62653d097ff85deb1c9bd142d95675704f8882a31bb02e1de979a0b2c639c533813f4aa9d7837caf62653d097ff85"
      ],
      "transaction": {
        "from": "0x64d4c6795fdfe795f509df45c1a0943c2816a94a",
        "to": "0xdeb1c9bd142d95675704f8882a31bb02e1de979a",
        "gas": "0x1733fa",
        "value": "0x0",
        "input": "0x83e85b27000000000000000000000000000000000000000000000000000000000000000000000000000000000000000000000000000000000000000000000000000000000000000000000000000000000000000000000000000000000000000000000060000000000000000000000000000000000000000000000000000000000000003c0b2c639c533813f4aa9d7837caf62653d097ff85deb1c9bd142d95675704f8882a31bb02e1de979a0b2c639c533813f4aa9d7837caf62653d097ff8500000000",
        "nonce": "0x104",
        "chainId": "0xa"
      },
      "additionalContracts": [
        {
          "transactionType": "CREATE",
          "address": "0xf9e8474d5b4ca219bf2e91406b8f44653c604d97",
          "initCode": "0x600b380380600b3d393df3363d3d373d3d3d3d60368038038091363936013d7349f57eab321063dd5dcb29f59746e0022f4d0fe75af43d3d93803e603457fd5bf3000000000b2c639c533813f4aa9d7837caf62653d097ff85deb1c9bd142d95675704f8882a31bb02e1de979a0b2c639c533813f4aa9d7837caf62653d097ff85"
        },
        {
          "transactionType": "CREATE",
          "address": "0xd0d63f97b47af8745d3612c6ba4f19594ad319ca",
          "initCode": "0x60a080604052346100545733608052610ada9081610059823960805181818161013e015281816101d2015281816103470152818161042501528181610536015281816105d60152818161071501526107bb0152f35b5f80fdfe6080806040526004361015610012575f80fd5b5f3560e01c90816306fdde031461074e57508063095ea7b3146100ef57806318160ddd146106a457806323b872dd1461066b57806323de6651146105b0578063313ce567146104c557806338d52e0f146103b457806370a08231146102b157806395d89b4114610162578063985426ec146100f4578063a9059cbb146100ef5763dd62ed3e146100a0575f80fd5b346100eb5760407ffffffffffffffffffffffffffffffffffffffffffffffffffffffffffffffffc3601126100eb576100d76108c3565b506100e06108e6565b5060206040515f8152f35b5f80fd5b610909565b346100eb575f7ffffffffffffffffffffffffffffffffffffffffffffffffffffffffffffffffc3601126100eb57602060405173ffffffffffffffffffffffffffffffffffffffff7f0000000000000000000000000000000000000000000000000000000000000000168152f35b346100eb575f7ffffffffffffffffffffffffffffffffffffffffffffffffffffffffffffffffc3601126100eb576040517f95d89b410000000000000000000000000000000000000000000000000000000081525f8160048173ffffffffffffffffffffffffffffffffffffffff7f0000000000000000000000000000000000000000000000000000000000000000165afa80156102a657610274600560208093610280955f91610284575b506040519481869251918291018484015e81017f2d444542540000000000000000000000000000000000000000000000000000008382015203017fffffffffffffffffffffffffffffffffffffffffffffffffffffffffffffffe58101845201826109db565b6040519182918261087b565b0390f35b6102a091503d805f833e61029881836109db565b810190610a49565b8661020e565b6040513d5f823e3d90fd5b346100eb5760207ffffffffffffffffffffffffffffffffffffffffffffffffffffffffffffffffc3601126100eb576102e86108c3565b73ffffffffffffffffffffffffffffffffffffffff604051917fd283e75f00000000000000000000000000000000000000000000000000000000835216600482015260208160248173ffffffffffffffffffffffffffffffffffffffff7f0000000000000000000000000000000000000000000000000000000000000000165afa80156102a6575f90610381575b602090604051908152f35b506020813d6020116103ac575b8161039b602093836109db565b810103126100eb5760209051610376565b3d915061038e565b346100eb575f7ffffffffffffffffffffffffffffffffffffffffffffffffffffffffffffffffc3601126100eb576040517f38d52e0f00000000000000000000000000000000000000000000000000000000815260208160048173ffffffffffffffffffffffffffffffffffffffff7f0000000000000000000000000000000000000000000000000000000000000000165afa80156102a6575f90610475575b60209073ffffffffffffffffffffffffffffffffffffffff60405191168152f35b506020813d6020116104bd575b8161048f602093836109db565b810103126100eb575173ffffffffffffffffffffffffffffffffffffffff811681036100eb57602090610454565b3d9150610482565b346100eb575f7ffffffffffffffffffffffffffffffffffffffffffffffffffffffffffffffffc3601126100eb576040517f313ce56700000000000000000000000000000000000000000000000000000000815260208160048173ffffffffffffffffffffffffffffffffffffffff7f0000000000000000000000000000000000000000000000000000000000000000165afa80156102a6575f90610573575b60209060ff60405191168152f35b506020813d6020116105a8575b8161058d602093836109db565b810103126100eb575160ff811681036100eb57602090610565565b3d9150610580565b346100eb576105be36610969565b9073ffffffffffffffffffffffffffffffffffffffff7f000000000000000000000000000000000000000000000000000000000000000016330361064357602073ffffffffffffffffffffffffffffffffffffffff807fddf252ad1be2c89b69c2b068fc378daa952ba7f163c4a11628f55a4df523b3ef9360405195865216941692a3005b7f08e2ce17000000000000000000000000000000000000000000000000000000005f5260045ffd5b346100eb5761067936610969565b5050507ffea48513000000000000000000000000000000000000000000000000000000005f5260045ffd5b346100eb575f7ffffffffffffffffffffffffffffffffffffffffffffffffffffffffffffffffc3601126100eb576040517f47bd371800000000000000000000000000000000000000000000000000000000815260208160048173ffffffffffffffffffffffffffffffffffffffff7f0000000000000000000000000000000000000000000000000000000000000000165afa80156102a6575f9061038157602090604051908152f35b346100eb575f7ffffffffffffffffffffffffffffffffffffffffffffffffffffffffffffffffc3601126100eb577f06fdde030000000000000000000000000000000000000000000000000000000081525f8160048173ffffffffffffffffffffffffffffffffffffffff7f0000000000000000000000000000000000000000000000000000000000000000165afa9081156102a657610274602e610280936020935f91610861575b506040519384917f4465627420746f6b656e206f6620000000000000000000000000000000000000828401528051918291018484015e81015f8382015203017fffffffffffffffffffffffffffffffffffffffffffffffffffffffffffffffe081018352826109db565b61087591503d805f833e61029881836109db565b856107f7565b7fffffffffffffffffffffffffffffffffffffffffffffffffffffffffffffffe0601f602060409481855280519182918282880152018686015e5f8582860101520116010190565b6004359073ffffffffffffffffffffffffffffffffffffffff821682036100eb57565b6024359073ffffffffffffffffffffffffffffffffffffffff821682036100eb57565b346100eb5760407ffffffffffffffffffffffffffffffffffffffffffffffffffffffffffffffffc3601126100eb576109406108c3565b507ffea48513000000000000000000000000000000000000000000000000000000005f5260045ffd5b7ffffffffffffffffffffffffffffffffffffffffffffffffffffffffffffffffc60609101126100eb5760043573ffffffffffffffffffffffffffffffffffffffff811681036100eb579060243573ffffffffffffffffffffffffffffffffffffffff811681036100eb579060443590565b90601f7fffffffffffffffffffffffffffffffffffffffffffffffffffffffffffffffe0910116810190811067ffffffffffffffff821117610a1c57604052565b7f4e487b71000000000000000000000000000000000000000000000000000000005f52604160045260245ffd5b6020818303126100eb5780519067ffffffffffffffff82116100eb570181601f820112156100eb5780519067ffffffffffffffff8211610a1c5760405192610ab960207fffffffffffffffffffffffffffffffffffffffffffffffffffffffffffffffe0601f86011601856109db565b828452602083830101116100eb57815f9260208093018386015e830101529056"
        }
      ],
      "isFixedGasLimit": false
    }
  ],
  "receipts": [
    {
      "status": "0x1",
      "cumulativeGasUsed": "0x6b8623",
      "logs": [
        {
          "address": "0xf9e8474d5b4ca219bf2e91406b8f44653c604d97",
          "topics": [
            "0x0cd345140b9008a43f99a999a328ece572a0193e8c8bf5f5755585e6f293b85e",
            "0x00000000000000000000000064d4c6795fdfe795f509df45c1a0943c2816a94a",
            "0x0000000000000000000000000b2c639c533813f4aa9d7837caf62653d097ff85"
          ],
          "data": "0x000000000000000000000000d0d63f97b47af8745d3612c6ba4f19594ad319ca",
          "blockHash": "0x9741e23fe68c169e7d8ad47f190b661efe2324fba1de6254a6dbdb6fa9cc6553",
          "blockNumber": "0x85fb84d",
          "transactionHash": "0x2f6c02380a610b90d129b5c9a38a453310fc0e61880c3f51f4864fe6aad8fec8",
          "transactionIndex": "0x10",
          "logIndex": "0x49",
          "removed": false
        },
        {
          "address": "0xf9e8474d5b4ca219bf2e91406b8f44653c604d97",
          "topics": [
            "0x80b61abbfc5f73cfe5cf93cec97a69ed20643dc6c6f1833b05a1560aa164e24c"
          ],
          "data": "0x00000000000000000000000000000000000000000000000000000000000000000000000000000000000000000000000000000000000000000000000000000000000000000000000000000000000000000000000000000000000000000000000000000000000000000000000000000000000000000000000000000000000000000000000000000000000000000000000000000000033b2e3c9fd0803ce800000000000000000000000000000000000000000000000000000000000000000000000000000000000000000000000000000000000000000000000000000068b34a53",
          "blockHash": "0x9741e23fe68c169e7d8ad47f190b661efe2324fba1de6254a6dbdb6fa9cc6553",
          "blockNumber": "0x85fb84d",
          "transactionHash": "0x2f6c02380a610b90d129b5c9a38a453310fc0e61880c3f51f4864fe6aad8fec8",
          "transactionIndex": "0x10",
          "logIndex": "0x4a",
          "removed": false
        },
        {
          "address": "0xdeb1c9bd142d95675704f8882a31bb02e1de979a",
          "topics": [
            "0x04e664079117e113faa9684bc14aecb41651cbf098b14eda271248c6d0cda57c",
            "0x000000000000000000000000f9e8474d5b4ca219bf2e91406b8f44653c604d97"
          ],
          "data": "0x000000000000000000000000000000000000000000000000000000000000000000000000000000000000000049f57eab321063dd5dcb29f59746e0022f4d0fe70000000000000000000000000000000000000000000000000000000000000060000000000000000000000000000000000000000000000000000000000000003c0b2c639c533813f4aa9d7837caf62653d097ff85deb1c9bd142d95675704f8882a31bb02e1de979a0b2c639c533813f4aa9d7837caf62653d097ff8500000000",
          "blockHash": "0x9741e23fe68c169e7d8ad47f190b661efe2324fba1de6254a6dbdb6fa9cc6553",
          "blockNumber": "0x85fb84d",
          "transactionHash": "0x2f6c02380a610b90d129b5c9a38a453310fc0e61880c3f51f4864fe6aad8fec8",
          "transactionIndex": "0x10",
          "logIndex": "0x4b",
          "removed": false
        }
      ],
      "logsBloom": "0x00000000400000000000000000000000000000000000000000000000004000008000100000000001000000000000000000000000080000010000000000000010000000000000000000000800000000000000000000001000004000000008000000000000000000000000000000000000000800020000000000000000000000000000000000000000000000102000000000004000000000000000000000000000000000000000000840000000000004000000000000020000000000000000800000000000000000000000000000000000000000000000000000000000000000200000100000000000000000000000000000000000000000000000000000000000",
      "type": "0x2",
      "transactionHash": "0x2f6c02380a610b90d129b5c9a38a453310fc0e61880c3f51f4864fe6aad8fec8",
      "transactionIndex": "0x10",
      "blockHash": "0x9741e23fe68c169e7d8ad47f190b661efe2324fba1de6254a6dbdb6fa9cc6553",
      "blockNumber": "0x85fb84d",
      "gasUsed": "0x10cc70",
      "effectiveGasPrice": "0x1c0",
      "from": "0x64d4c6795fdfe795f509df45c1a0943c2816a94a",
      "to": "0xdeb1c9bd142d95675704f8882a31bb02e1de979a",
      "contractAddress": null,
      "l1BaseFeeScalar": "0x146b",
      "l1BlobBaseFee": "0x1",
      "l1BlobBaseFeeScalar": "0xf79c5",
      "l1Fee": "0x453bb865",
      "l1GasPrice": "0x8474038",
      "l1GasUsed": "0x640",
      "operatorFeeConstant": "0x0",
      "operatorFeeScalar": "0x0"
    }
  ],
  "libraries": [],
  "pending": [],
  "returns": {
    "eVault": {
      "internal_type": "address",
      "value": "0xf9e8474d5B4Ca219bF2e91406B8f44653c604d97"
    }
  },
  "timestamp": 1756580435,
  "chain": 10,
  "commit": "199ffa6"
}